:1000000002034475C90175C83075CDFF75CCFD7507
:10001000CBFF75CAFD759850E4F587D2CAD2AC22E1
:100023000204D3D2AF1200031206317BFF7A0479A4
:1000330052750F07E4FDFF1205F57F607EEA120695
:10004300587F607EEA1206587BFF7A04795A750F4F
:1000530008E4FDFF1205F57BFF7A047963750F0A47
:100063007D01E4FF1205F52080FD1206897BFF7AEE
:1000730004796E750F0CE4FDFF1205F57F607EEACF
:100083001206587F607EEA120658D203D299E541E0
:10009300C3941840F9D200120689E548C3940F406F
:1000A300F97BFF7A04797B750F07E4FDFF1205F5F1
:1000B300E4F508F509745C2509F8E6FF12054F0518
:1000C30009E50970020508C3940FE508940040E5AB
:1000D3007BFF7A047983750F0CE4FDFF1205F57F2E
:1000E300607EEA1206587F607EEA1206587B007A29
:1000F300007921750F10E4FDFF1205F57B007A00EE
:100103007931750F0E7D01E4FF1205F5E4F54DF528
:100113004E2081FD1206897BFF7A047990750F0FBB
:10012300E4FDFF1205F57F607EEA1206587F607ECC
:10013300EA120658D201D299E551C3940B40F9D281
:10014300021206897BFF7A04797B750F07E4FDFFB2
:100153001205F5E553C3941940F9750800750913A1
:10016300745C2509F8E6FF12054FAF09745C2FF89C
:10017300E6FE74442FF8A6060509E5097002050892
:10018300C39417E508940040D77B007A007957128F
:1001930005B37BFF7A0479A0750F0FE4FDFF120509
:1001A300F57F607EEA1206581206897B007A007991
:1001B30021750F08E4FDFF1205F5E55275F003A460
:1001C3002454F9E4FAFB750F03FD7F0A1205F58049
:1001D300FEE709F608DFFA8046E709F208DFFA804E
:1001E3003E88828C83E709F0A3DFFA8032E309F6C5
:1001F30008DFFA8078E309F208DFFA807088828CDE
:1002030083E309F0A3DFFA806489828A83E0A3F69B
:1002130008DFFA805889828A83E0A3F208DFFA8034
:100223004C80D280FA80C680D4806980F28033808B
:100233001080A680EA809A80A880DA80E280CA8053
:100243003389828A83ECFAE493A3C8C582C8CCC5F8
:1002530083CCF0A3C8C582C8CCC583CCDFE9DEE775
:10026300800D89828A83E493A3F608DFF9ECFAA967
:10027300F0EDFB2289828A83ECFAE0A3C8C582C829
:10028300CCC583CCF0A3C8C582C8CCC583CCDFEA78
:10029300DEE880DB89828A83E493A3F208DFF980B6
:1002A300CC88F0EF60010E4E60C388F0ED2402B4F9
:1002B300040050B9F582EB2402B4040050AF2323A9
:1002C30045822390022473BB010689828A83E0223C
:1002D3005002E722BBFE02E32289828A83E493224F
:1002E300BB010CE58229F582E5833AF583E02250D0
:1002F30006E92582F8E622BBFE06E92582F8E2221A
:10030300E58229F582E5833AF583E49322BB01066E
:1003130089828A83F0225002F722BBFE01F322F87E
:10032300BB010DE58229F582E5833AF583E8F022E6
:100333005006E92582C8F622BBFE05E92582C8F2EC
:1003430022787FE4F6D8FD75817B02038B020026B9
:10035300E493A3F8E493A34003F68001F208DFF4E7
:100363008029E493A3F85407240CC8C333C4540F5F
:100373004420C8834004F456800146F6DFE4800B32
:1003830001020408102040809003D0E47E019360B2
:10039300BCA3FF543F30E509541FFEE493A360015F
:1003A3000ECF54C025E060A840B8E493A3FAE493C9
:1003B300A3F8E493A3C8C582C8CAC583CAF0A3C877
:1003C300C582C8CAC583CADFE9DEE780BE017B00F8
:1003D300017A00014F00015000C103C100C101C1F6
:1003E300020141000148000151000153001E5C005D
:1003F30000000000000000000000000000000000FA
:1004030000000000000000000000000000102100B8
:1004130000000000000000000000000000000010C9
:100423003100000000000000000000000000000098
:1004330000014D00014E000354787A79044954F4C5
:10044300156E015202045700000000015B010057C2
:10045300656C636F6D6500312D77616B6575700039
:10046300322D66696E64636172640057616B696EF5
:10047300672075702E2E2E005375636365737300AA
:1004830057616974466F7241736369690046696EA7
:1004930064696E6720636172642E2E2E0057616952
:1004A30074466F7241736369692E2E2E0055550091
:1004B30000000000000000000000000000FF03FD3A
:1004C300D4140117000000FF04FCD44A0200E0002A
:1004D300C0E0C083C082C0D075D000C000C0073068
:1004E300982AC298300011E548C3940F500AAF48C8
:1004F3000548745C2FF8A699300211E553C394198B
:10050300500AAF530553745C2FF8A699309930C243
:1005130099300314E541C39418500DAF410541EFE1
:100523009004B093F550F599300114E551C3940B41
:10053300500DAF510551EF9004C893F550F599D084
:1005430007D000D0D0D082D083D0E032EFC4540F94
:10055300FEEF540FFFE4D39E500BEE94095006EECA
:100563002430FE8004EE2437FEE54DD3940F40087B
:10057300AD4E054E74318006AD4D054D74212DF8F9
:10058300A606E4D39F500BEF94095006EF2430FFE7
:100593008004EF2437FFE54DD3940F4008AE4E059A
:1005A3004E74318006AE4D054D74212EF8A60722F8
:1005B3008B0A8A0B890CE4FFEFC3955B5033E4F598
:1005C3000DAB0AAA0BA90C850D827583001202E3F9
:1005D300FEEF25E025E02449250DF8E6B5060705DD
:1005E3000DE50DB404DBE50DB404038F52220F8037
:1005F300C7228B0C8A0D890E120645AF0F150FEF1C
:100603006017AB0C050EE50EAA0D7002050D14F96B
:100613001202CAFF12067980E2227590FFC2A7D2A6
:10062300A6D2A5AF90C2A5EF5480FF70F4227F3805
:100633001206697F0C1206697F061206697F0102A2
:100643000669ED7004AC078004EF2440FCEC4480A1
:10065300FFFC020669EF1F70011E144E60070000C5
:1006630000000080F022AE0712061DC2A7C2A68EAC
:1006730090D2A5C2A522AE0712061DD2A7C2A68E8E
:0B06830090D2A5C2A5227F01020669EB
:00000001FF
